:100000000C9472000C9494000C9494000C94940042
:100010000C9494000C9494000C9494000C94940010
:100020000C9494000C9494000C9494000C94940000
:100030000C9494000C9494000C9494000C949400F0
:100040000C9494000C9494000C9494000C949400E0
:100050000C9494000C9494000C9494000C949400D0
:100060000C9494000C9494000C9494000C949400C0
:100070000C9494000C9494000C9494000C949400B0
:100080000C9494000C9494000C9494000C949400A0
:100090000C9494000C9494000C9494000C94940090
:1000A0000C9494000C9494000C9494000C94940080
:1000B0000C9494000C9494000C9494000C94940070
:1000C0000C9494000C9494000C9494000C94940060
:1000D0000C9494000C9494000C9494000C94940050
:1000E0000C94940011241FBECFEFD1E2DEBFCDBF30
:1000F00000E00CBF12E0A0E0B2E0EAE6F6E000E0CB
:100100000BBF02C007900D92AE30B107D9F71BBEEE
:1001100012E0AEE0B2E001C01D92AE30B107E1F7EF
:100120000E9477010C9433030C940000909102011B
:100130009F7E9093020187FF05C09091020190611C
:100140009093020190910201977F9093020186FFA4
:1001500005C090910201986090930201739885FD0B
:10016000739AA59884FDA59A80910201806480937A
:10017000020185E08A95F1F70000809102018F7BF2
:10018000809302010895CF93C82F809102018F7D43
:10019000809302018C2F0E9496008C2F8295807F85
:1001A0000E94960087EC90E00197F1F700C00000F4
:1001B000C43018F0C03850F007C08FE39FE10197BA
:1001C000F1F700C00000C0E8C0930C02CF91089581
:1001D000CF93C82F809102018062809302018C2FFF
:1001E0000E9496008C2F8295807F0E94960087EC5B
:1001F00090E00197F1F700C0000080910C028F5F42
:1002000080930C02803919F0803D31F402C080ECFB
:1002100001C080E80E94C300CF910895CF93DF937F
:10022000EC0102C00E94E80089918823D9F7DF9190
:10023000CF910895CF93C82F04C080E20E94E800B8
:10024000C150CC23D1F7CF9108959D9A6B9AE1E0EC
:10025000F1E08081886080838081806180838081FB
:1002600080628083808180648083E2E0F1E080812D
:100270008F7B808380818F7D80838FE59AEE0197CD
:10028000F1F700C0000080E30E9496008FE090E448
:100290000197F1F700C0000080E30E9496008FE80C
:1002A00091E00197F1F700C0000080E30E94960002
:1002B00087EC90E00197F1F700C0000080E20E9417
:1002C000960087EC90E00197F1F700C0000088E20B
:1002D0000E94C30088E00E94C30081E00E94C30026
:1002E00086E00E94C3008CE00E94C3000895CDB751
:1002F000DEB76E97DEBFCDBF0E94250180E80E9469
:10030000C300DE011D96E0E0F2E08CE001900D926A
:100310008150E1F780EC0E94C300DE011196E0E01D
:10032000F2E08CE001900D928150E1F787E8809334
:100330007A0080E480937C002AE030E03A8F298FB5
:1003400061E0E62EF12C81C180917A008064809377
:100350007A0014C080917800909179009E8F1D8E54
:100360002D8D3E8D280F311DC90133E0893E930745
:1003700028F486EE90E0E826F92604C080917A0001
:1003800086FDE8CF80E80E94C300CE010D960E9452
:100390000E018F898F5F8F8B91E0E916F10411F0C8
:1003A00080E801C080EC0E94C300CE0101960E944B
:1003B0000E018B858F5F8B878FE39CE90197F1F7A7
:1003C00000C000000894C108D108C114D10409F08C
:1003D000BBCF1F8B80E80E94C300CE010D960E9408
:1003E0000E018E898F5F8E8B1B8791E0E916F104D9
:1003F00011F080E801C080EC0E94C300CE0101969C
:100400000E940E018A858F5F8A870894A108B1082F
:10041000A114B10421F05AE0C52ED12C95CF1F8B29
:100420001E8B80E80E94C300CE010D960E940E0133
:100430008C898F5F8C8B1B871A8721E0E216F10471
:1004400011F080E801C080EC0E94C300CE0101964B
:100450000E940E0188858F5F888708948108910823
:100460008114910421F04AE0A42EB12CD4CF10E3E2
:100470001F8B1E8B1C8B80E80E94C300CE010D9643
:100480000E940E018B898F5F8B8B1B871A871887C1
:1004900031E0E316F10411F080E801C080EC0E9425
:1004A000C300CE0101960E940E018F818F5F8F8362
:1004B0000894610871086114710429F03AE0832EF0
:1004C000912C10E3D0CF10E31F8B1E8B1C8B1B8B4A
:1004D00080E80E94C300CE010D960E940E0189891A
:1004E0008F5F898B1B871A8718871F8381E0E81627
:1004F000F10411F080E801C080EC0E94C300CE013D
:1005000001960E940E018D818F5F8D8308944108B2
:1005100051084114510421F026E0622E712CCECFF7
:1005200010E31F8B1E8B1C8B1B8B198B80E80E948A
:10053000C300CE010D960E940E0188898F5F888BC3
:100540001B871A8718871F831D8391E0E916F10422
:1005500011F080E801C080EC0E94C300CE0101963A
:100560000E940E018C818F5F8C83089421083108D2
:100570002114310421F09AE0492E512CCDCF10E303
:100580001F8B1E8B1C8B1B8B198B188B80E80E947A
:10059000C300CE010D960E940E018E858F5F8E875F
:1005A0001B871A8718871F831D831C8321E0E2168F
:1005B000F10411F080E801C080EC0E94C300CE017C
:1005C00001960E940E018A818F5F8A832B8D3C8D5C
:1005D000215030403C8F2B8F2115310521F086E0D2
:1005E000282E312CC8CF10E31F8B1E8B1C8B1B8B2E
:1005F000198B188B1E8780E80E94C300CE010D96D0
:100600000E940E018D858F5F8D871B871A87188743
:100610001F831D831C831A8331E0E316F10411F458
:1006200080EC01C080E80E94C300CE0101960E94C8
:100630000E0189818F5F8983298D3A8D2150304049
:100640003A8F298F2115310529F02AE030E03C8FBF
:100650002B8FC5CF80E090E06E960FB6F894DEBF8A
:0A0660000FBECDBF0895F894FFCF40
:0E066A0030303A30303A30303A3030008000D4
:00000001FF
